{
  "contractName": "RotoManager",
  "abi": [
    {
      "constant": false,
      "inputs": [
        {
          "name": "_emergency",
          "type": "bool"
        }
      ],
      "name": "setEmergency",
      "outputs": [
        {
          "name": "",
          "type": "bool"
        }
      ],
      "payable": false,
      "stateMutability": "nonpayable",
      "type": "function"
    },
    {
      "constant": true,
      "inputs": [
        {
          "name": "",
          "type": "bytes32"
        }
      ],
      "name": "tournaments",
      "outputs": [
        {
          "name": "open",
          "type": "bool"
        },
        {
          "name": "etherPrize",
          "type": "uint256"
        },
        {
          "name": "etherLeft",
          "type": "uint256"
        },
        {
          "name": "rotoPrize",
          "type": "uint256"
        },
        {
          "name": "rotoLeft",
          "type": "uint256"
        },
        {
          "name": "creationTime",
          "type": "uint256"
        },
        {
          "name": "userStakes",
          "type": "uint256"
        },
        {
          "name": "stakesResolved",
          "type": "uint256"
        }
      ],
      "payable": false,
      "stateMutability": "view",
      "type": "function"
    },
    {
      "constant": false,
      "inputs": [
        {
          "name": "_contract",
          "type": "address"
        }
      ],
      "name": "setTokenContract",
      "outputs": [
        {
          "name": "",
          "type": "bool"
        }
      ],
      "payable": false,
      "stateMutability": "nonpayable",
      "type": "function"
    },
    {
      "inputs": [],
      "payable": false,
      "stateMutability": "nonpayable",
      "type": "constructor"
    },
    {
      "anonymous": false,
      "inputs": [
        {
          "indexed": true,
          "name": "staker",
          "type": "address"
        },
        {
          "indexed": false,
          "name": "totalAmountStaked",
          "type": "uint256"
        },
        {
          "indexed": true,
          "name": "tournamentID",
          "type": "bytes32"
        }
      ],
      "name": "StakeProcessed",
      "type": "event"
    },
    {
      "anonymous": false,
      "inputs": [
        {
          "indexed": true,
          "name": "tournamentID",
          "type": "bytes32"
        },
        {
          "indexed": true,
          "name": "stakerAddress",
          "type": "address"
        },
        {
          "indexed": false,
          "name": "rotoLost",
          "type": "uint256"
        }
      ],
      "name": "StakeDestroyed",
      "type": "event"
    },
    {
      "anonymous": false,
      "inputs": [
        {
          "indexed": true,
          "name": "tournamentID",
          "type": "bytes32"
        },
        {
          "indexed": true,
          "name": "stakerAddress",
          "type": "address"
        },
        {
          "indexed": false,
          "name": "etherReward",
          "type": "uint256"
        },
        {
          "indexed": false,
          "name": "rotoStaked",
          "type": "uint256"
        }
      ],
      "name": "StakeReleased",
      "type": "event"
    },
    {
      "anonymous": false,
      "inputs": [
        {
          "indexed": true,
          "name": "tournamentID",
          "type": "bytes32"
        },
        {
          "indexed": true,
          "name": "stakerAddress",
          "type": "address"
        },
        {
          "indexed": false,
          "name": "rotoReward",
          "type": "uint256"
        }
      ],
      "name": "SubmissionRewarded",
      "type": "event"
    },
    {
      "anonymous": false,
      "inputs": [
        {
          "indexed": false,
          "name": "_contract",
          "type": "address"
        }
      ],
      "name": "TokenChanged",
      "type": "event"
    },
    {
      "anonymous": false,
      "inputs": [
        {
          "indexed": true,
          "name": "tournamentID",
          "type": "bytes32"
        },
        {
          "indexed": false,
          "name": "etherPrize",
          "type": "uint256"
        },
        {
          "indexed": false,
          "name": "rotoPrize",
          "type": "uint256"
        }
      ],
      "name": "TournamentCreated",
      "type": "event"
    },
    {
      "anonymous": false,
      "inputs": [
        {
          "indexed": true,
          "name": "tournamentID",
          "type": "bytes32"
        }
      ],
      "name": "TournamentClosed",
      "type": "event"
    },
    {
      "constant": false,
      "inputs": [
        {
          "name": "_user",
          "type": "address"
        },
        {
          "name": "_tournamentID",
          "type": "bytes32"
        },
        {
          "name": "_etherReward",
          "type": "uint256"
        }
      ],
      "name": "releaseRoto",
      "outputs": [
        {
          "name": "successful",
          "type": "bool"
        }
      ],
      "payable": false,
      "stateMutability": "nonpayable",
      "type": "function"
    },
    {
      "constant": false,
      "inputs": [
        {
          "name": "_user",
          "type": "address"
        },
        {
          "name": "_tournamentID",
          "type": "bytes32"
        },
        {
          "name": "_rotoReward",
          "type": "uint256"
        }
      ],
      "name": "rewardRoto",
      "outputs": [
        {
          "name": "successful",
          "type": "bool"
        }
      ],
      "payable": false,
      "stateMutability": "nonpayable",
      "type": "function"
    },
    {
      "constant": false,
      "inputs": [
        {
          "name": "_user",
          "type": "address"
        },
        {
          "name": "_tournamentID",
          "type": "bytes32"
        }
      ],
      "name": "destroyRoto",
      "outputs": [
        {
          "name": "successful",
          "type": "bool"
        }
      ],
      "payable": false,
      "stateMutability": "nonpayable",
      "type": "function"
    },
    {
      "constant": false,
      "inputs": [
        {
          "name": "_value",
          "type": "uint256"
        },
        {
          "name": "_tournamentID",
          "type": "bytes32"
        }
      ],
      "name": "stake",
      "outputs": [
        {
          "name": "successful",
          "type": "bool"
        }
      ],
      "payable": false,
      "stateMutability": "nonpayable",
      "type": "function"
    },
    {
      "constant": false,
      "inputs": [
        {
          "name": "_tournamentID",
          "type": "bytes32"
        },
        {
          "name": "_etherPrize",
          "type": "uint256"
        },
        {
          "name": "_rotoPrize",
          "type": "uint256"
        }
      ],
      "name": "createTournament",
      "outputs": [
        {
          "name": "successful",
          "type": "bool"
        }
      ],
      "payable": true,
      "stateMutability": "payable",
      "type": "function"
    },
    {
      "constant": false,
      "inputs": [
        {
          "name": "_tournamentID",
          "type": "bytes32"
        }
      ],
      "name": "closeTournament",
      "outputs": [
        {
          "name": "successful",
          "type": "bool"
        }
      ],
      "payable": false,
      "stateMutability": "nonpayable",
      "type": "function"
    }
  ],
  "bytecode": "0x608060405234801561001057600080fd5b5033600360006101000a81548173ffffffffffffffffffffffffffffffffffffffff021916908373ffffffffffffffffffffffffffffffffffffffff1602179055506000600460146101000a81548160ff02191690831515021790555030600460006101000a81548173ffffffffffffffffffffffffffffffffffffffff021916908373ffffffffffffffffffffffffffffffffffffffff1602179055506117ce806100bd6000396000f300608060405260043610610099576000357c0100000000000000000000000000000000000000000000000000000000900463ffffffff1680630501d5561461009e578063139cfab1146100e55780632f2d783e1461015f5780633cc136e0146101d25780634f8d40e11461023b5780637515b84a1461028457806383c592cf146102f7578063bbcd5bbe1461034a578063c6e68ea6146103a5575b600080fd5b3480156100aa57600080fd5b506100cb6004803603810190808035151590602001909291905050506103f5565b604051808215151515815260200191505060405180910390f35b3480156100f157600080fd5b506101146004803603810190808035600019169060200190929190505050610476565b60405180891515151581526020018881526020018781526020018681526020018581526020018481526020018381526020018281526020019850505050505050505060405180910390f35b34801561016b57600080fd5b506101b8600480360381019080803573ffffffffffffffffffffffffffffffffffffffff1690602001909291908035600019169060200190929190803590602001909291905050506104cb565b604051808215151515815260200191505060405180910390f35b3480156101de57600080fd5b50610221600480360381019080803573ffffffffffffffffffffffffffffffffffffffff16906020019092919080356000191690602001909291905050506107c8565b604051808215151515815260200191505060405180910390f35b34801561024757600080fd5b5061026a6004803603810190808035600019169060200190929190505050610aee565b604051808215151515815260200191505060405180910390f35b34801561029057600080fd5b506102dd600480360381019080803573ffffffffffffffffffffffffffffffffffffffff169060200190929190803560001916906020019092919080359060200190929190505050610c1e565b604051808215151515815260200191505060405180910390f35b34801561030357600080fd5b50610330600480360381019080803590602001909291908035600019169060200190929190505050610ff8565b604051808215151515815260200191505060405180910390f35b34801561035657600080fd5b5061038b600480360381019080803573ffffffffffffffffffffffffffffffffffffffff16906020019092919050505061102e565b604051808215151515815260200191505060405180910390f35b6103db60048036038101908080356000191690602001909291908035906020019092919080359060200190929190505050611247565b604051808215151515815260200191505060405180910390f35b6000600360009054906101000a900473ffffffffffffffffffffffffffffffffffffffff1673ffffffffffffffffffffffffffffffffffffffff163373ffffffffffffffffffffffffffffffffffffffff1614151561045357600080fd5b81600460146101000a81548160ff02191690831515021790555060019050919050565b60006020528060005260406000206000915090508060000160009054906101000a900460ff16908060010154908060020154908060030154908060040154908060050154908060070154908060080154905088565b600080600080600360009054906101000a900473ffffffffffffffffffffffffffffffffffffffff1673ffffffffffffffffffffffffffffffffffffffff163373ffffffffffffffffffffffffffffffffffffffff1614151561052d57600080fd5b60001515600460149054906101000a900460ff16151514151561054f57600080fd5b60008087600019166000191681526020019081526020016000209250600115158360000160009054906101000a900460ff16151514151561058f57600080fd5b8260060160008873ffffffffffffffffffffffffffffffffffffffff1673ffffffffffffffffffffffffffffffffffffffff1681526020019081526020016000206000876000191660001916815260200190815260200160002091508160000154905060008114151561060157600080fd5b600015158260010160019054906101000a900460ff16151514151561062557600080fd5b600160009054906101000a900473ffffffffffffffffffffffffffffffffffffffff1673ffffffffffffffffffffffffffffffffffffffff1663af8b0ec788876040518363ffffffff167c0100000000000000000000000000000000000000000000000000000000028152600401808373ffffffffffffffffffffffffffffffffffffffff1673ffffffffffffffffffffffffffffffffffffffff16815260200182815260200192505050602060405180830381600087803b1580156106ea57600080fd5b505af11580156106fe573d6000803e3d6000fd5b505050506040513d602081101561071457600080fd5b8101908080519060200190929190505050151561072d57fe5b60018260010160016101000a81548160ff02191690831515021790555060018260010160006101000a81548160ff0219169083151502179055508673ffffffffffffffffffffffffffffffffffffffff1686600019167fbde63ce1e6c04dda93688217d96947e5dbc54f83174c152f3f9c0d3edbcf1b13876040518082815260200191505060405180910390a3600193505050509392505050565b600080600080600360009054906101000a900473ffffffffffffffffffffffffffffffffffffffff1673ffffffffffffffffffffffffffffffffffffffff163373ffffffffffffffffffffffffffffffffffffffff1614151561082a57600080fd5b60001515600460149054906101000a900460ff16151514151561084c57600080fd5b60008086600019166000191681526020019081526020016000209250600115158360000160009054906101000a900460ff16151514151561088c57600080fd5b8260060160008773ffffffffffffffffffffffffffffffffffffffff1673ffffffffffffffffffffffffffffffffffffffff168152602001908152602001600020600086600019166000191681526020019081526020016000209150816000015490506000811115156108fe57600080fd5b600015158260010160019054906101000a900460ff16151514151561092257600080fd5b6000826000018190555060018260010160016101000a81548160ff02191690831515021790555060008260010160006101000a81548160ff021916908315150217905550600160009054906101000a900473ffffffffffffffffffffffffffffffffffffffff1673ffffffffffffffffffffffffffffffffffffffff1663a1e7959c87836040518363ffffffff167c0100000000000000000000000000000000000000000000000000000000028152600401808373ffffffffffffffffffffffffffffffffffffffff1673ffffffffffffffffffffffffffffffffffffffff16815260200182815260200192505050602060405180830381600087803b158015610a2b57600080fd5b505af1158015610a3f573d6000803e3d6000fd5b505050506040513d6020811015610a5557600080fd5b81019080805190602001909291905050501515610a6e57fe5b610a866001846008015461136f90919063ffffffff16565b83600801819055508573ffffffffffffffffffffffffffffffffffffffff1685600019167f049aae62612f34826b222570c2ac41863678a3e6d62c9232780a9e765728c830836040518082815260200191505060405180910390a36001935050505092915050565b600080600360009054906101000a900473ffffffffffffffffffffffffffffffffffffffff1673ffffffffffffffffffffffffffffffffffffffff163373ffffffffffffffffffffffffffffffffffffffff16141515610b4d57600080fd5b60008084600019166000191681526020019081526020016000209050600115158160000160009054906101000a900460ff161515141515610b8d57600080fd5b60008160040154148015610ba5575060008160020154145b1515610bb057600080fd5b80600801548160070154141515610bc657600080fd5b60008160000160006101000a81548160ff02191690831515021790555082600019167f5355d47307d9c003c99b9b30cc5f1ce29148397f91ce2084b17609819517df3260405160405180910390a26001915050919050565b600080600080600360009054906101000a900473ffffffffffffffffffffffffffffffffffffffff1673ffffffffffffffffffffffffffffffffffffffff163373ffffffffffffffffffffffffffffffffffffffff16141515610c8057600080fd5b60001515600460149054906101000a900460ff161515141515610ca257600080fd5b60008087600019166000191681526020019081526020016000209250600115158360000160009054906101000a900460ff161515141515610ce257600080fd5b8260060160008873ffffffffffffffffffffffffffffffffffffffff1673ffffffffffffffffffffffffffffffffffffffff16815260200190815260200160002060008760001916600019168152602001908152602001600020915081600001549050600081111515610d5457600080fd5b600015158260010160019054906101000a900460ff161515141515610d7857600080fd5b84600460009054906101000a900473ffffffffffffffffffffffffffffffffffffffff1673ffffffffffffffffffffffffffffffffffffffff1631111515610dbf57600080fd5b84836002015410151515610dd257600080fd5b60008260000181905550600160009054906101000a900473ffffffffffffffffffffffffffffffffffffffff1673ffffffffffffffffffffffffffffffffffffffff166330ee67c888836040518363ffffffff167c0100000000000000000000000000000000000000000000000000000000028152600401808373ffffffffffffffffffffffffffffffffffffffff1673ffffffffffffffffffffffffffffffffffffffff16815260200182815260200192505050602060405180830381600087803b158015610ea157600080fd5b505af1158015610eb5573d6000803e3d6000fd5b505050506040513d6020811015610ecb57600080fd5b81019080805190602001909291905050501515610ee457fe5b610efc6001846008015461136f90919063ffffffff16565b836008018190555060018260010160016101000a81548160ff02191690831515021790555060018260010160006101000a81548160ff0219169083151502179055506000851115610f8f578673ffffffffffffffffffffffffffffffffffffffff166108fc869081150290604051600060405180830381858888f19350505050158015610f8d573d6000803e3d6000fd5b505b8673ffffffffffffffffffffffffffffffffffffffff1686600019167fd6459a26cb873a02b48d26eccd0e961093a710ac5b58b4a00239af14fe4996ba8784604051808381526020018281526020019250505060405180910390a3600193505050509392505050565b6000801515600460149054906101000a900460ff16151514151561101b57600080fd5b61102633838561138b565b905092915050565b600080600360009054906101000a900473ffffffffffffffffffffffffffffffffffffffff1673ffffffffffffffffffffffffffffffffffffffff163373ffffffffffffffffffffffffffffffffffffffff1614151561108d57600080fd5b600073ffffffffffffffffffffffffffffffffffffffff168373ffffffffffffffffffffffffffffffffffffffff16141580156111185750600460009054906101000a900473ffffffffffffffffffffffffffffffffffffffff1673ffffffffffffffffffffffffffffffffffffffff168373ffffffffffffffffffffffffffffffffffffffff1614155b151561112357600080fd5b823b905060008111151561113657600080fd5b82600260006101000a81548173ffffffffffffffffffffffffffffffffffffffff021916908373ffffffffffffffffffffffffffffffffffffffff160217905550600260009054906101000a900473ffffffffffffffffffffffffffffffffffffffff16600160006101000a81548173ffffffffffffffffffffffffffffffffffffffff021916908373ffffffffffffffffffffffffffffffffffffffff1602179055507f5d108ca248943e98e1886bbc2c38beda701271994a14354258a11692b81b73cf83604051808273ffffffffffffffffffffffffffffffffffffffff1673ffffffffffffffffffffffffffffffffffffffff16815260200191505060405180910390a16001915050919050565b600080600360009054906101000a900473ffffffffffffffffffffffffffffffffffffffff1673ffffffffffffffffffffffffffffffffffffffff163373ffffffffffffffffffffffffffffffffffffffff161415156112a657600080fd5b60008086600019166000191681526020019081526020016000209050600081600501541415156112d557600080fd5b60018160000160006101000a81548160ff02191690831515021790555083816001018190555083816002018190555082816003018190555082816004018190555042816005018190555084600019167f687ecf6345d4ba10d46bd9b936e3521c4bdcd9051e4c43523f0bbfde7a2719078585604051808381526020018281526020019250505060405180910390a260019150509392505050565b6000818301905082811015151561138257fe5b80905092915050565b600080600080600086600019166000191681526020019081526020016000209150600115158260000160009054906101000a900460ff1615151415156113d057600080fd5b8160060160008773ffffffffffffffffffffffffffffffffffffffff1673ffffffffffffffffffffffffffffffffffffffff1681526020019081526020016000206000866000191660001916815260200190815260200160002090506000816000015414151561143f57600080fd5b60008411151561144e57600080fd5b600260009054906101000a900473ffffffffffffffffffffffffffffffffffffffff1673ffffffffffffffffffffffffffffffffffffffff168673ffffffffffffffffffffffffffffffffffffffff16141580156114fa5750600360009054906101000a900473ffffffffffffffffffffffffffffffffffffffff1673ffffffffffffffffffffffffffffffffffffffff168673ffffffffffffffffffffffffffffffffffffffff1614155b151561150557600080fd5b600160009054906101000a900473ffffffffffffffffffffffffffffffffffffffff1673ffffffffffffffffffffffffffffffffffffffff16632afbbacb87866040518363ffffffff167c0100000000000000000000000000000000000000000000000000000000028152600401808373ffffffffffffffffffffffffffffffffffffffff1673ffffffffffffffffffffffffffffffffffffffff16815260200182815260200192505050602060405180830381600087803b1580156115ca57600080fd5b505af11580156115de573d6000803e3d6000fd5b505050506040513d60208110156115f457600080fd5b8101908080519060200190929190505050151561160d57fe5b838160000181905550600160009054906101000a900473ffffffffffffffffffffffffffffffffffffffff1673ffffffffffffffffffffffffffffffffffffffff166347fd04b187866040518363ffffffff167c0100000000000000000000000000000000000000000000000000000000028152600401808373ffffffffffffffffffffffffffffffffffffffff1673ffffffffffffffffffffffffffffffffffffffff16815260200182815260200192505050602060405180830381600087803b1580156116db57600080fd5b505af11580156116ef573d6000803e3d6000fd5b505050506040513d602081101561170557600080fd5b8101908080519060200190929190505050151561171e57fe5b6117366001836007015461136f90919063ffffffff16565b826007018190555084600019168673ffffffffffffffffffffffffffffffffffffffff167fce5d2d53b298e573a854cfbe9cc8529dd41b53aff08f3ac4bcc705e50c18468a83600001546040518082815260200191505060405180910390a360019250505093925050505600a165627a7a723058203b82eb6403fde8677eb05667876fe9f7d00fa8ed3030dc6d50d257465bb978e30029",
  "source": "pragma solidity 0.4.24;\r\n\r\nimport './RotoBasic.sol';\r\n\r\ncontract RotoManager is RotoBasic {\r\n\r\n    using SafeMath for uint256;\r\n\r\n    constructor() public {\r\n      owner = msg.sender;\r\n      emergency = false;\r\n      manager = this;\r\n    }\r\n\r\n    /**\r\n        @dev - In the event that their submissions were successful, this function will return the tokens to the user, and distribute ether rewards were applicable\r\n        @param _user The user's address, the ether the've won,\r\n        @return - returns whether the Roto was sucessfully transferred\r\n     */\r\n    function releaseRoto(address _user, bytes32 _tournamentID, uint256 _etherReward) external onlyOwner stopInEmergency returns(bool successful){\r\n        Tournament storage tournament = tournaments[_tournamentID];\r\n        require(tournament.open==true);\r\n\r\n        Stake storage user_stake = tournament.stakes[_user][_tournamentID];\r\n        uint256 initial_stake = user_stake.amount;\r\n\r\n        // prelimiary checks \r\n        require(initial_stake > 0);\r\n        require(user_stake.resolved == false);\r\n\r\n        // ether balance rewards\r\n        require(manager.balance > _etherReward);\r\n        require(tournament.etherLeft >= _etherReward);\r\n\r\n        //Redistributes roto back to the user, and marks the stake as successful and completed\r\n        user_stake.amount = 0;\r\n        assert(token.releaseRoto(_user, initial_stake)); // calls the token contract releaseRoto function to handle the token accounting\r\n        tournament.stakesResolved = tournament.stakesResolved.add(1);\r\n        \r\n        user_stake.resolved = true;\r\n        user_stake.successful = true;\r\n\r\n        if(_etherReward > 0) {\r\n          _user.transfer(_etherReward);\r\n        }\r\n\r\n        emit StakeReleased(_tournamentID, _user, _etherReward, initial_stake);\r\n        \r\n        return true;\r\n    }\r\n    /**\r\n        @dev - If the user did not stake ROTO, but they still had a successful submission, then RotoHive will reward the user with an amount of ROTO respective to their performance.\r\n        @param _user address, which the ROTO will be sent to\r\n        @param _rotoReward amount of ROTO that the user has won\r\n        @return - a boolean value determining whether the operation was successful\r\n    \r\n     */\r\n    function rewardRoto(address _user, bytes32 _tournamentID, uint256 _rotoReward) external onlyOwner stopInEmergency returns(bool successful) {\r\n      Tournament storage tournament = tournaments[_tournamentID];\r\n      require(tournament.open==true);\r\n\r\n      Stake storage user_stake = tournament.stakes[_user][_tournamentID];\r\n      uint256 initial_stake = user_stake.amount;\r\n      \r\n      require(initial_stake==0);\r\n      require(user_stake.resolved == false);\r\n\r\n      assert(token.rewardRoto(_user, _rotoReward));\r\n\r\n      user_stake.resolved = true;\r\n      user_stake.successful = true;\r\n\r\n      emit SubmissionRewarded(_tournamentID, _user, _rotoReward);\r\n\r\n      return true;\r\n    }\r\n\r\n    /**\r\n        @dev - For unsuccessful submission, the Roto will initially sent back to the contract.\r\n        @param _user address, the address of the user who's stake was unsuccessful\r\n        @param _tournamentID 32byte hex, the tournament which the stake belongs to\r\n        @return - whether the roto was successfully destroyed\r\n     */\r\n    function destroyRoto(address _user, bytes32 _tournamentID) external onlyOwner stopInEmergency returns(bool successful) {\r\n        Tournament storage tournament = tournaments[_tournamentID];\r\n        require(tournament.open==true);\r\n\r\n        Stake storage user_stake = tournament.stakes[_user][_tournamentID];\r\n\r\n        uint256 initial_stake = user_stake.amount;\r\n\r\n        require(initial_stake > 0);\r\n        require(user_stake.resolved == false);\r\n\r\n        user_stake.amount = 0;\r\n        user_stake.resolved = true;\r\n        user_stake.successful = false;\r\n\r\n        assert(token.destroyRoto(_user, initial_stake));\r\n        tournament.stakesResolved = tournament.stakesResolved.add(1);\r\n\r\n        emit StakeDestroyed(_tournamentID, _user, initial_stake);\r\n\r\n        return true;\r\n    }\r\n\r\n    /**\r\n        @dev - The public method which will allow user's to stake their Roto alongside their submissions\r\n        @param _value the amount of Roto being staked, the id of that stake, and the id of the tournament\r\n        @return - whether the staking request was successful\r\n     */\r\n    function stake(uint256 _value, bytes32 _tournamentID) external stopInEmergency returns(bool successful) {\r\n        return _stake(msg.sender, _tournamentID, _value);\r\n    }\r\n\r\n    /**\r\n        @dev - The internal method to process the request to stake Roto as a part of the Tournament Submission\r\n        @param _staker the user who's staking roto, the ID of the tournament, the amount of roto the user's staking, the staking tag\r\n        @return - whether the withdraw operation was successful\r\n     */\r\n    function _stake(address _staker, bytes32 _tournamentID, uint256 _value) internal returns(bool successful) {\r\n        Tournament storage tournament = tournaments[_tournamentID];\r\n\r\n        //The User can't submit after tournament closure and the tournament must have begun\r\n        require((tournament.open==true));\r\n\r\n        Stake storage user_stake = tournament.stakes[_staker][_tournamentID];\r\n        \r\n        require(user_stake.amount==0); // Users can only stake once\r\n        require(_value>0); // Users must stake at least 1 ROTO\r\n        require(_staker != roto && _staker != owner); //RotoHive can't stake in \r\n        \r\n        //Users must have the necessary balances to submit their stake\r\n        assert(token.canStake(_staker, _value));\r\n\r\n        user_stake.amount = _value;\r\n        assert(token.stakeRoto(_staker,_value));\r\n\r\n        // adds the stake the submission\r\n        tournament.userStakes = tournament.userStakes.add(1);\r\n\r\n        emit StakeProcessed(_staker, user_stake.amount, _tournamentID);\r\n\r\n        return true;\r\n    }\r\n\r\n    /**\r\n        @dev - Allows RotoHive to create this week's RotoHive Tournament\r\n        @param _tournamentID 32byte hex, the ID which RotoHive uses to reference each tournament\r\n        @param _etherPrize Eth, the total ether prize pool for the tournament\r\n        @param _rotoPrize ROTO, the total ROTO prize pool for the tournament\r\n        @return - whether the tournament was successfully created\r\n     */\r\n    function createTournament(bytes32 _tournamentID, uint256 _etherPrize, uint256 _rotoPrize) external payable onlyOwner returns(bool successful) {\r\n        Tournament storage newTournament = tournaments[_tournamentID];\r\n        require(newTournament.creationTime==0);\r\n        \r\n        newTournament.open = true;\r\n        newTournament.etherPrize = _etherPrize;\r\n        newTournament.etherLeft = _etherPrize;\r\n\r\n        newTournament.rotoPrize = _rotoPrize;\r\n        newTournament.rotoLeft = _rotoPrize;\r\n        newTournament.creationTime = block.timestamp;\r\n\r\n        emit TournamentCreated(_tournamentID, _etherPrize, _rotoPrize);\r\n\r\n        return true;\r\n    }\r\n\r\n    /**\r\n      @dev - closes the current tournament after the submission deadline has passed\r\n      @param _tournamentID the tournament ID\r\n      @return - returns whether the tournament was closed successfully\r\n    */\r\n    function closeTournament(bytes32 _tournamentID) external onlyOwner returns(bool successful) {\r\n       Tournament storage tournament = tournaments[_tournamentID];\r\n      //  the tournament should be open\r\n       require(tournament.open==true);\r\n\r\n       //  all the prizes should have been given out\r\n       require(tournament.rotoLeft == 0 && tournament.etherLeft == 0);\r\n      //  all the users stakes should have been resolved\r\n       require(tournament.userStakes == tournament.stakesResolved);\r\n       tournament.open = false;\r\n\r\n       emit TournamentClosed(_tournamentID);\r\n       return true;\r\n    }\r\n}",
  "sourcePath": "D:\\contracts\\contracts\\RotoManager.sol",
  "compiler": {
    "name": "solc",
    "version": "0.4.24+commit.e67f0147.Emscripten.clang"
  },
  "schemaVersion": "2.0.0",
  "updatedAt": "2018-08-04T19:51:20.632Z"
}