{
  "contractName": "RotoBasic",
  "abi": [
    {
      "constant": true,
      "inputs": [
        {
          "name": "",
          "type": "bytes32"
        }
      ],
      "name": "tournaments",
      "outputs": [
        {
          "name": "open",
          "type": "bool"
        },
        {
          "name": "etherPrize",
          "type": "uint256"
        },
        {
          "name": "etherLeft",
          "type": "uint256"
        },
        {
          "name": "rotoPrize",
          "type": "uint256"
        },
        {
          "name": "rotoLeft",
          "type": "uint256"
        },
        {
          "name": "creationTime",
          "type": "uint256"
        },
        {
          "name": "userStakes",
          "type": "uint256"
        },
        {
          "name": "stakesResolved",
          "type": "uint256"
        }
      ],
      "payable": false,
      "stateMutability": "view",
      "type": "function"
    },
    {
      "anonymous": false,
      "inputs": [
        {
          "indexed": true,
          "name": "staker",
          "type": "address"
        },
        {
          "indexed": false,
          "name": "totalAmountStaked",
          "type": "uint256"
        },
        {
          "indexed": true,
          "name": "tournamentID",
          "type": "bytes32"
        }
      ],
      "name": "StakeProcessed",
      "type": "event"
    },
    {
      "anonymous": false,
      "inputs": [
        {
          "indexed": true,
          "name": "tournamentID",
          "type": "bytes32"
        },
        {
          "indexed": true,
          "name": "stakerAddress",
          "type": "address"
        },
        {
          "indexed": false,
          "name": "rotoLost",
          "type": "uint256"
        }
      ],
      "name": "StakeDestroyed",
      "type": "event"
    },
    {
      "anonymous": false,
      "inputs": [
        {
          "indexed": true,
          "name": "tournamentID",
          "type": "bytes32"
        },
        {
          "indexed": true,
          "name": "stakerAddress",
          "type": "address"
        },
        {
          "indexed": false,
          "name": "etherReward",
          "type": "uint256"
        },
        {
          "indexed": false,
          "name": "rotoStaked",
          "type": "uint256"
        }
      ],
      "name": "StakeReleased",
      "type": "event"
    },
    {
      "anonymous": false,
      "inputs": [
        {
          "indexed": true,
          "name": "tournamentID",
          "type": "bytes32"
        },
        {
          "indexed": true,
          "name": "stakerAddress",
          "type": "address"
        },
        {
          "indexed": false,
          "name": "rotoReward",
          "type": "uint256"
        }
      ],
      "name": "SubmissionRewarded",
      "type": "event"
    },
    {
      "anonymous": false,
      "inputs": [
        {
          "indexed": false,
          "name": "_contract",
          "type": "address"
        }
      ],
      "name": "TokenChanged",
      "type": "event"
    },
    {
      "anonymous": false,
      "inputs": [
        {
          "indexed": true,
          "name": "tournamentID",
          "type": "bytes32"
        },
        {
          "indexed": false,
          "name": "etherPrize",
          "type": "uint256"
        },
        {
          "indexed": false,
          "name": "rotoPrize",
          "type": "uint256"
        }
      ],
      "name": "TournamentCreated",
      "type": "event"
    },
    {
      "anonymous": false,
      "inputs": [
        {
          "indexed": true,
          "name": "tournamentID",
          "type": "bytes32"
        }
      ],
      "name": "TournamentClosed",
      "type": "event"
    },
    {
      "constant": false,
      "inputs": [
        {
          "name": "_contract",
          "type": "address"
        }
      ],
      "name": "setTokenContract",
      "outputs": [
        {
          "name": "",
          "type": "bool"
        }
      ],
      "payable": false,
      "stateMutability": "nonpayable",
      "type": "function"
    },
    {
      "constant": false,
      "inputs": [
        {
          "name": "_emergency",
          "type": "bool"
        }
      ],
      "name": "setEmergency",
      "outputs": [
        {
          "name": "",
          "type": "bool"
        }
      ],
      "payable": false,
      "stateMutability": "nonpayable",
      "type": "function"
    },
    {
      "constant": false,
      "inputs": [
        {
          "name": "_newOwner",
          "type": "address"
        }
      ],
      "name": "changeOwner",
      "outputs": [
        {
          "name": "",
          "type": "bool"
        }
      ],
      "payable": false,
      "stateMutability": "nonpayable",
      "type": "function"
    }
  ],
  "bytecode": "0x608060405234801561001057600080fd5b5061059d806100206000396000f300608060405260043610610062576000357c0100000000000000000000000000000000000000000000000000000000900463ffffffff1680630501d55614610067578063139cfab1146100ae578063a6f9dae114610128578063bbcd5bbe14610183575b600080fd5b34801561007357600080fd5b506100946004803603810190808035151590602001909291905050506101de565b604051808215151515815260200191505060405180910390f35b3480156100ba57600080fd5b506100dd600480360381019080803560001916906020019092919050505061025f565b60405180891515151581526020018881526020018781526020018681526020018581526020018481526020018381526020018281526020019850505050505050505060405180910390f35b34801561013457600080fd5b50610169600480360381019080803573ffffffffffffffffffffffffffffffffffffffff1690602001909291905050506102b4565b604051808215151515815260200191505060405180910390f35b34801561018f57600080fd5b506101c4600480360381019080803573ffffffffffffffffffffffffffffffffffffffff169060200190929190505050610358565b604051808215151515815260200191505060405180910390f35b6000600360009054906101000a900473ffffffffffffffffffffffffffffffffffffffff1673ffffffffffffffffffffffffffffffffffffffff163373ffffffffffffffffffffffffffffffffffffffff1614151561023c57600080fd5b81600460146101000a81548160ff02191690831515021790555060019050919050565b60006020528060005260406000206000915090508060000160009054906101000a900460ff16908060010154908060020154908060030154908060040154908060050154908060070154908060080154905088565b6000600360009054906101000a900473ffffffffffffffffffffffffffffffffffffffff1673ffffffffffffffffffffffffffffffffffffffff163373ffffffffffffffffffffffffffffffffffffffff1614151561031257600080fd5b81600360006101000a81548173ffffffffffffffffffffffffffffffffffffffff021916908373ffffffffffffffffffffffffffffffffffffffff160217905550919050565b600080600360009054906101000a900473ffffffffffffffffffffffffffffffffffffffff1673ffffffffffffffffffffffffffffffffffffffff163373ffffffffffffffffffffffffffffffffffffffff161415156103b757600080fd5b600073ffffffffffffffffffffffffffffffffffffffff168373ffffffffffffffffffffffffffffffffffffffff16141580156104425750600460009054906101000a900473ffffffffffffffffffffffffffffffffffffffff1673ffffffffffffffffffffffffffffffffffffffff168373ffffffffffffffffffffffffffffffffffffffff1614155b151561044d57600080fd5b823b905060008111151561046057600080fd5b82600260006101000a81548173ffffffffffffffffffffffffffffffffffffffff021916908373ffffffffffffffffffffffffffffffffffffffff160217905550600260009054906101000a900473ffffffffffffffffffffffffffffffffffffffff16600160006101000a81548173ffffffffffffffffffffffffffffffffffffffff021916908373ffffffffffffffffffffffffffffffffffffffff1602179055507f5d108ca248943e98e1886bbc2c38beda701271994a14354258a11692b81b73cf83604051808273ffffffffffffffffffffffffffffffffffffffff1673ffffffffffffffffffffffffffffffffffffffff16815260200191505060405180910390a160019150509190505600a165627a7a7230582015d039b876f032443ef94e5a3ef6de96a6ed8e42abd683d68236a72d50c989860029",
  "source": "pragma solidity 0.4.24;\r\n\r\nimport './RotoToken.sol';\r\ncontract RotoBasic {\r\n\r\n    mapping (bytes32 => Tournament) public tournaments;  // tournamentID\r\n    \r\n    //Instance and Address of the RotoToken contract\r\n    RotoToken token;\r\n    address roto;\r\n\r\n    //Address of the contract owner the manager contract(this contract)\r\n    address owner;\r\n    address manager;\r\n\r\n    //boolean variable that determines whether there's an emergency state\r\n    bool emergency;\r\n\r\n    struct Tournament {\r\n        bool open;\r\n        // the total ether prize and how much is left\r\n        uint256 etherPrize;\r\n        uint256 etherLeft;\r\n        // the total roto prize how much is left\r\n        uint256 rotoPrize;\r\n        uint256 rotoLeft;\r\n        // tournament details\r\n        uint256 creationTime;\r\n        mapping (address => mapping (bytes32 => Stake)) stakes;  // address of staker, to tournament ID points to a specific stake\r\n        //counters to easily tell the # of stakes vs # of stakes resolved\r\n        uint256 userStakes;\r\n        uint256 stakesResolved;\r\n    }\r\n\r\n    struct Stake {\r\n        uint256 amount; // Once the stake is resolved, this becomes 0\r\n        bool successful;\r\n        bool resolved;\r\n    }\r\n\r\n    modifier onlyOwner {\r\n      require(msg.sender==owner);\r\n      _;\r\n    }\r\n\r\n    modifier stopInEmergency {\r\n      require(emergency==false);\r\n      _;\r\n    }\r\n\r\n    //Tournament Creation and Processing Events\r\n    event StakeProcessed(address indexed staker, uint256 totalAmountStaked, bytes32 indexed tournamentID);\r\n    event StakeDestroyed(bytes32 indexed tournamentID, address indexed stakerAddress, uint256 rotoLost);\r\n    event StakeReleased(bytes32 indexed tournamentID, address indexed stakerAddress, uint256 etherReward, uint256 rotoStaked);\r\n    event SubmissionRewarded(bytes32 indexed tournamentID, address indexed stakerAddress, uint256 rotoReward);\r\n    \r\n    event TokenChanged(address _contract);\r\n    event TournamentCreated(bytes32 indexed tournamentID, uint256 etherPrize, uint256 rotoPrize);\r\n    event TournamentClosed(bytes32 indexed tournamentID);\r\n\r\n    /**\r\n       @dev - sets the token contract to used for the token accounting\r\n       @param _contract address, the address of the token contract\r\n       @return - true if the token contract was set successfully\r\n    */\r\n    function setTokenContract(address _contract) public onlyOwner returns(bool) {\r\n      require(_contract!=address(0)&&_contract!=manager);\r\n\r\n      // requires that the address sent be a contract\r\n      uint size;\r\n      assembly { size := extcodesize(_contract) }\r\n      require(size > 0);\r\n\r\n      roto = _contract;\r\n      token = RotoToken(roto);\r\n\r\n      emit TokenChanged(_contract);\r\n      return true;\r\n    }\r\n\r\n    /**\r\n        @dev - sets the state of the emegency variable to true, preventing any of the tournament processes to run\r\n        @param _emergency boolean variable to set emergency to\r\n        @return - true if the variable was changed successfully\r\n    */\r\n    function setEmergency(bool _emergency) public onlyOwner returns(bool) {\r\n      emergency = _emergency;\r\n      return true;\r\n    }\r\n\r\n    /**\r\n      @dev - sets the owner address to a new one\r\n      @param  _newOwner address\r\n      @return - true if the address was changed successful\r\n     */\r\n    function changeOwner(address _newOwner) public onlyOwner returns(bool) {\r\n      owner = _newOwner;\r\n    }\r\n\r\n}",
  "sourcePath": "D:\\contracts\\contracts\\RotoBasic.sol",
  "compiler": {
    "name": "solc",
    "version": "0.4.24+commit.e67f0147.Emscripten.clang"
  },
  "schemaVersion": "2.0.0",
  "updatedAt": "2018-08-05T15:17:00.244Z"
}