{
  "contractName": "RotoToken",
  "abi": [
    {
      "constant": true,
      "inputs": [],
      "name": "name",
      "outputs": [
        {
          "name": "",
          "type": "string"
        }
      ],
      "payable": false,
      "stateMutability": "view",
      "type": "function"
    },
    {
      "constant": false,
      "inputs": [
        {
          "name": "_spender",
          "type": "address"
        },
        {
          "name": "_value",
          "type": "uint256"
        }
      ],
      "name": "approve",
      "outputs": [
        {
          "name": "",
          "type": "bool"
        }
      ],
      "payable": false,
      "stateMutability": "nonpayable",
      "type": "function"
    },
    {
      "constant": true,
      "inputs": [],
      "name": "totalSupply",
      "outputs": [
        {
          "name": "",
          "type": "uint256"
        }
      ],
      "payable": false,
      "stateMutability": "view",
      "type": "function"
    },
    {
      "constant": false,
      "inputs": [
        {
          "name": "_from",
          "type": "address"
        },
        {
          "name": "_to",
          "type": "address"
        },
        {
          "name": "_value",
          "type": "uint256"
        }
      ],
      "name": "transferFrom",
      "outputs": [
        {
          "name": "",
          "type": "bool"
        }
      ],
      "payable": false,
      "stateMutability": "nonpayable",
      "type": "function"
    },
    {
      "constant": true,
      "inputs": [],
      "name": "INITIAL_SUPPLY",
      "outputs": [
        {
          "name": "",
          "type": "uint256"
        }
      ],
      "payable": false,
      "stateMutability": "view",
      "type": "function"
    },
    {
      "constant": true,
      "inputs": [],
      "name": "decimals",
      "outputs": [
        {
          "name": "",
          "type": "uint8"
        }
      ],
      "payable": false,
      "stateMutability": "view",
      "type": "function"
    },
    {
      "constant": false,
      "inputs": [
        {
          "name": "_spender",
          "type": "address"
        },
        {
          "name": "_subtractedValue",
          "type": "uint256"
        }
      ],
      "name": "decreaseApproval",
      "outputs": [
        {
          "name": "",
          "type": "bool"
        }
      ],
      "payable": false,
      "stateMutability": "nonpayable",
      "type": "function"
    },
    {
      "constant": true,
      "inputs": [
        {
          "name": "_owner",
          "type": "address"
        }
      ],
      "name": "balanceOf",
      "outputs": [
        {
          "name": "balance",
          "type": "uint256"
        }
      ],
      "payable": false,
      "stateMutability": "view",
      "type": "function"
    },
    {
      "constant": true,
      "inputs": [],
      "name": "symbol",
      "outputs": [
        {
          "name": "",
          "type": "string"
        }
      ],
      "payable": false,
      "stateMutability": "view",
      "type": "function"
    },
    {
      "constant": false,
      "inputs": [
        {
          "name": "_to",
          "type": "address"
        },
        {
          "name": "_value",
          "type": "uint256"
        }
      ],
      "name": "transfer",
      "outputs": [
        {
          "name": "",
          "type": "bool"
        }
      ],
      "payable": false,
      "stateMutability": "nonpayable",
      "type": "function"
    },
    {
      "constant": false,
      "inputs": [
        {
          "name": "_spender",
          "type": "address"
        },
        {
          "name": "_addedValue",
          "type": "uint256"
        }
      ],
      "name": "increaseApproval",
      "outputs": [
        {
          "name": "",
          "type": "bool"
        }
      ],
      "payable": false,
      "stateMutability": "nonpayable",
      "type": "function"
    },
    {
      "constant": true,
      "inputs": [
        {
          "name": "_owner",
          "type": "address"
        },
        {
          "name": "_spender",
          "type": "address"
        }
      ],
      "name": "allowance",
      "outputs": [
        {
          "name": "",
          "type": "uint256"
        }
      ],
      "payable": false,
      "stateMutability": "view",
      "type": "function"
    },
    {
      "inputs": [],
      "payable": false,
      "stateMutability": "nonpayable",
      "type": "constructor"
    },
    {
      "anonymous": false,
      "inputs": [
        {
          "indexed": false,
          "name": "_contract",
          "type": "address"
        }
      ],
      "name": "ManagerChanged",
      "type": "event"
    },
    {
      "anonymous": false,
      "inputs": [
        {
          "indexed": false,
          "name": "_user",
          "type": "address"
        },
        {
          "indexed": false,
          "name": "stake",
          "type": "uint256"
        }
      ],
      "name": "RotoStaked",
      "type": "event"
    },
    {
      "anonymous": false,
      "inputs": [
        {
          "indexed": false,
          "name": "_user",
          "type": "address"
        },
        {
          "indexed": false,
          "name": "stake",
          "type": "uint256"
        }
      ],
      "name": "RotoReleased",
      "type": "event"
    },
    {
      "anonymous": false,
      "inputs": [
        {
          "indexed": false,
          "name": "_user",
          "type": "address"
        },
        {
          "indexed": false,
          "name": "stake",
          "type": "uint256"
        }
      ],
      "name": "RotoDestroyed",
      "type": "event"
    },
    {
      "anonymous": false,
      "inputs": [
        {
          "indexed": false,
          "name": "_contract",
          "type": "address"
        },
        {
          "indexed": false,
          "name": "_user",
          "type": "address"
        },
        {
          "indexed": false,
          "name": "reward",
          "type": "uint256"
        }
      ],
      "name": "RotoRewarded",
      "type": "event"
    },
    {
      "anonymous": false,
      "inputs": [
        {
          "indexed": true,
          "name": "owner",
          "type": "address"
        },
        {
          "indexed": true,
          "name": "spender",
          "type": "address"
        },
        {
          "indexed": false,
          "name": "value",
          "type": "uint256"
        }
      ],
      "name": "Approval",
      "type": "event"
    },
    {
      "anonymous": false,
      "inputs": [
        {
          "indexed": true,
          "name": "from",
          "type": "address"
        },
        {
          "indexed": true,
          "name": "to",
          "type": "address"
        },
        {
          "indexed": false,
          "name": "value",
          "type": "uint256"
        }
      ],
      "name": "Transfer",
      "type": "event"
    },
    {
      "constant": false,
      "inputs": [
        {
          "name": "_to",
          "type": "address"
        },
        {
          "name": "_value",
          "type": "uint256"
        }
      ],
      "name": "transferFromContract",
      "outputs": [
        {
          "name": "",
          "type": "bool"
        }
      ],
      "payable": false,
      "stateMutability": "nonpayable",
      "type": "function"
    },
    {
      "constant": false,
      "inputs": [
        {
          "name": "_contract",
          "type": "address"
        }
      ],
      "name": "setManagerContract",
      "outputs": [
        {
          "name": "",
          "type": "bool"
        }
      ],
      "payable": false,
      "stateMutability": "nonpayable",
      "type": "function"
    },
    {
      "constant": false,
      "inputs": [
        {
          "name": "_user",
          "type": "address"
        },
        {
          "name": "_value",
          "type": "uint256"
        }
      ],
      "name": "releaseRoto",
      "outputs": [
        {
          "name": "",
          "type": "bool"
        }
      ],
      "payable": false,
      "stateMutability": "nonpayable",
      "type": "function"
    },
    {
      "constant": false,
      "inputs": [
        {
          "name": "_user",
          "type": "address"
        },
        {
          "name": "_value",
          "type": "uint256"
        }
      ],
      "name": "destroyRoto",
      "outputs": [
        {
          "name": "",
          "type": "bool"
        }
      ],
      "payable": false,
      "stateMutability": "nonpayable",
      "type": "function"
    },
    {
      "constant": false,
      "inputs": [
        {
          "name": "_user",
          "type": "address"
        },
        {
          "name": "_value",
          "type": "uint256"
        }
      ],
      "name": "stakeRoto",
      "outputs": [
        {
          "name": "",
          "type": "bool"
        }
      ],
      "payable": false,
      "stateMutability": "nonpayable",
      "type": "function"
    },
    {
      "constant": false,
      "inputs": [
        {
          "name": "_user",
          "type": "address"
        },
        {
          "name": "_value",
          "type": "uint256"
        }
      ],
      "name": "rewardRoto",
      "outputs": [
        {
          "name": "successful",
          "type": "bool"
        }
      ],
      "payable": false,
      "stateMutability": "nonpayable",
      "type": "function"
    },
    {
      "constant": true,
      "inputs": [
        {
          "name": "_user",
          "type": "address"
        },
        {
          "name": "_value",
          "type": "uint256"
        }
      ],
      "name": "canStake",
      "outputs": [
        {
          "name": "",
          "type": "bool"
        }
      ],
      "payable": false,
      "stateMutability": "view",
      "type": "function"
    },
    {
      "constant": true,
      "inputs": [],
      "name": "getManager",
      "outputs": [
        {
          "name": "_manager",
          "type": "address"
        }
      ],
      "payable": false,
      "stateMutability": "view",
      "type": "function"
    }
  ],
  "bytecode": "0x608060405230600460006101000a81548173ffffffffffffffffffffffffffffffffffffffff021916908373ffffffffffffffffffffffffffffffffffffffff16021790555034801561005157600080fd5b5033600360006101000a81548173ffffffffffffffffffffffffffffffffffffffff021916908373ffffffffffffffffffffffffffffffffffffffff160217905550601260ff16600a0a6301406f4002600181905550601260ff16600a0a6301406f4002600080600460009054906101000a900473ffffffffffffffffffffffffffffffffffffffff1673ffffffffffffffffffffffffffffffffffffffff1673ffffffffffffffffffffffffffffffffffffffff16815260200190815260200160002081905550600460009054906101000a900473ffffffffffffffffffffffffffffffffffffffff1673ffffffffffffffffffffffffffffffffffffffff1660007fddf252ad1be2c89b69c2b068fc378daa952ba7f163c4a11628f55a4df523b3ef601260ff16600a0a6301406f40026040518082815260200191505060405180910390a3612515806101a76000396000f300608060405260043610610112576000357c0100000000000000000000000000000000000000000000000000000000900463ffffffff16806306fdde0314610117578063095ea7b3146101a757806318160ddd1461020c5780631a88f3061461023757806323b872dd1461029c5780632afbbacb146103215780632ff2e9dc1461038657806330ee67c8146103b1578063313ce5671461041657806347fd04b11461044757806357895ca2146104ac578063661884631461050757806370a082311461056c57806395d89b41146105c3578063a1e7959c14610653578063a9059cbb146106b8578063af8b0ec71461071d578063d500958414610782578063d73dd623146107d9578063dd62ed3e1461083e575b600080fd5b34801561012357600080fd5b5061012c6108b5565b6040518080602001828103825283818151815260200191508051906020019080838360005b8381101561016c578082015181840152602081019050610151565b50505050905090810190601f1680156101995780820380516001836020036101000a031916815260200191505b509250505060405180910390f35b3480156101b357600080fd5b506101f2600480360381019080803573ffffffffffffffffffffffffffffffffffffffff169060200190929190803590602001909291905050506108ee565b604051808215151515815260200191505060405180910390f35b34801561021857600080fd5b506102216109e0565b6040518082815260200191505060405180910390f35b34801561024357600080fd5b50610282600480360381019080803573ffffffffffffffffffffffffffffffffffffffff169060200190929190803590602001909291905050506109ea565b604051808215151515815260200191505060405180910390f35b3480156102a857600080fd5b50610307600480360381019080803573ffffffffffffffffffffffffffffffffffffffff169060200190929190803573ffffffffffffffffffffffffffffffffffffffff16906020019092919080359060200190929190505050610cee565b604051808215151515815260200191505060405180910390f35b34801561032d57600080fd5b5061036c600480360381019080803573ffffffffffffffffffffffffffffffffffffffff169060200190929190803590602001909291905050506110a8565b604051808215151515815260200191505060405180910390f35b34801561039257600080fd5b5061039b611199565b6040518082815260200191505060405180910390f35b3480156103bd57600080fd5b506103fc600480360381019080803573ffffffffffffffffffffffffffffffffffffffff169060200190929190803590602001909291905050506111aa565b604051808215151515815260200191505060405180910390f35b34801561042257600080fd5b5061042b6113bb565b604051808260ff1660ff16815260200191505060405180910390f35b34801561045357600080fd5b50610492600480360381019080803573ffffffffffffffffffffffffffffffffffffffff169060200190929190803590602001909291905050506113c0565b604051808215151515815260200191505060405180910390f35b3480156104b857600080fd5b506104ed600480360381019080803573ffffffffffffffffffffffffffffffffffffffff1690602001909291905050506115af565b604051808215151515815260200191505060405180910390f35b34801561051357600080fd5b50610552600480360381019080803573ffffffffffffffffffffffffffffffffffffffff16906020019092919080359060200190929190505050611765565b604051808215151515815260200191505060405180910390f35b34801561057857600080fd5b506105ad600480360381019080803573ffffffffffffffffffffffffffffffffffffffff1690602001909291905050506119f6565b6040518082815260200191505060405180910390f35b3480156105cf57600080fd5b506105d8611a3e565b6040518080602001828103825283818151815260200191508051906020019080838360005b838110156106185780820151818401526020810190506105fd565b50505050905090810190601f1680156106455780820380516001836020036101000a031916815260200191505b509250505060405180910390f35b34801561065f57600080fd5b5061069e600480360381019080803573ffffffffffffffffffffffffffffffffffffffff16906020019092919080359060200190929190505050611a77565b604051808215151515815260200191505060405180910390f35b3480156106c457600080fd5b50610703600480360381019080803573ffffffffffffffffffffffffffffffffffffffff16906020019092919080359060200190929190505050611caa565b604051808215151515815260200191505060405180910390f35b34801561072957600080fd5b50610768600480360381019080803573ffffffffffffffffffffffffffffffffffffffff16906020019092919080359060200190929190505050611ec9565b604051808215151515815260200191505060405180910390f35b34801561078e57600080fd5b50610797612207565b604051808273ffffffffffffffffffffffffffffffffffffffff1673ffffffffffffffffffffffffffffffffffffffff16815260200191505060405180910390f35b3480156107e557600080fd5b50610824600480360381019080803573ffffffffffffffffffffffffffffffffffffffff16906020019092919080359060200190929190505050612231565b604051808215151515815260200191505060405180910390f35b34801561084a57600080fd5b5061089f600480360381019080803573ffffffffffffffffffffffffffffffffffffffff169060200190929190803573ffffffffffffffffffffffffffffffffffffffff16906020019092919050505061242d565b6040518082815260200191505060405180910390f35b6040805190810160405280600481526020017f526f746f0000000000000000000000000000000000000000000000000000000081525081565b600081600260003373ffffffffffffffffffffffffffffffffffffffff1673ffffffffffffffffffffffffffffffffffffffff16815260200190815260200160002060008573ffffffffffffffffffffffffffffffffffffffff1673ffffffffffffffffffffffffffffffffffffffff168152602001908152602001600020819055508273ffffffffffffffffffffffffffffffffffffffff163373ffffffffffffffffffffffffffffffffffffffff167f8c5be1e5ebec7d5bd14f71427d1e84f3dd0314c0f7b2291e5b200ac8c7c3b925846040518082815260200191505060405180910390a36001905092915050565b6000600154905090565b6000600360009054906101000a900473ffffffffffffffffffffffffffffffffffffffff1673ffffffffffffffffffffffffffffffffffffffff163373ffffffffffffffffffffffffffffffffffffffff16141515610a4857600080fd5b600073ffffffffffffffffffffffffffffffffffffffff168373ffffffffffffffffffffffffffffffffffffffff1614151515610a8457600080fd5b600080600460009054906101000a900473ffffffffffffffffffffffffffffffffffffffff1673ffffffffffffffffffffffffffffffffffffffff1673ffffffffffffffffffffffffffffffffffffffff168152602001908152602001600020548211151515610af357600080fd5b610b6682600080600460009054906101000a900473ffffffffffffffffffffffffffffffffffffffff1673ffffffffffffffffffffffffffffffffffffffff1673ffffffffffffffffffffffffffffffffffffffff168152602001908152602001600020546124b490919063ffffffff16565b600080600460009054906101000a900473ffffffffffffffffffffffffffffffffffffffff1673ffffffffffffffffffffffffffffffffffffffff1673ffffffffffffffffffffffffffffffffffffffff16815260200190815260200160002081905550610c1b826000808673ffffffffffffffffffffffffffffffffffffffff1673ffffffffffffffffffffffffffffffffffffffff168152602001908152602001600020546124cd90919063ffffffff16565b6000808573ffffffffffffffffffffffffffffffffffffffff1673ffffffffffffffffffffffffffffffffffffffff168152602001908152602001600020819055508273ffffffffffffffffffffffffffffffffffffffff16600460009054906101000a900473ffffffffffffffffffffffffffffffffffffffff1673ffffffffffffffffffffffffffffffffffffffff167fddf252ad1be2c89b69c2b068fc378daa952ba7f163c4a11628f55a4df523b3ef846040518082815260200191505060405180910390a36001905092915050565b60008073ffffffffffffffffffffffffffffffffffffffff168373ffffffffffffffffffffffffffffffffffffffff1614151515610d2b57600080fd5b6000808573ffffffffffffffffffffffffffffffffffffffff1673ffffffffffffffffffffffffffffffffffffffff168152602001908152602001600020548211151515610d7857600080fd5b600260008573ffffffffffffffffffffffffffffffffffffffff1673ffffffffffffffffffffffffffffffffffffffff16815260200190815260200160002060003373ffffffffffffffffffffffffffffffffffffffff1673ffffffffffffffffffffffffffffffffffffffff168152602001908152602001600020548211151515610e0357600080fd5b610e54826000808773ffffffffffffffffffffffffffffffffffffffff1673ffffffffffffffffffffffffffffffffffffffff168152602001908152602001600020546124b490919063ffffffff16565b6000808673ffffffffffffffffffffffffffffffffffffffff1673ffffffffffffffffffffffffffffffffffffffff16815260200190815260200160002081905550610ee7826000808673ffffffffffffffffffffffffffffffffffffffff1673ffffffffffffffffffffffffffffffffffffffff168152602001908152602001600020546124cd90919063ffffffff16565b6000808573ffffffffffffffffffffffffffffffffffffffff1673ffffffffffffffffffffffffffffffffffffffff16815260200190815260200160002081905550610fb882600260008773ffffffffffffffffffffffffffffffffffffffff1673ffffffffffffffffffffffffffffffffffffffff16815260200190815260200160002060003373ffffffffffffffffffffffffffffffffffffffff1673ffffffffffffffffffffffffffffffffffffffff168152602001908152602001600020546124b490919063ffffffff16565b600260008673ffffffffffffffffffffffffffffffffffffffff1673ffffffffffffffffffffffffffffffffffffffff16815260200190815260200160002060003373ffffffffffffffffffffffffffffffffffffffff1673ffffffffffffffffffffffffffffffffffffffff168152602001908152602001600020819055508273ffffffffffffffffffffffffffffffffffffffff168473ffffffffffffffffffffffffffffffffffffffff167fddf252ad1be2c89b69c2b068fc378daa952ba7f163c4a11628f55a4df523b3ef846040518082815260200191505060405180910390a3600190509392505050565b6000600560009054906101000a900473ffffffffffffffffffffffffffffffffffffffff1673ffffffffffffffffffffffffffffffffffffffff163373ffffffffffffffffffffffffffffffffffffffff1614151561110657600080fd5b600073ffffffffffffffffffffffffffffffffffffffff168373ffffffffffffffffffffffffffffffffffffffff161415151561114257600080fd5b6000808473ffffffffffffffffffffffffffffffffffffffff1673ffffffffffffffffffffffffffffffffffffffff16815260200190815260200160002054821115151561118f57600080fd5b6001905092915050565b601260ff16600a0a6301406f400281565b6000600560009054906101000a900473ffffffffffffffffffffffffffffffffffffffff1673ffffffffffffffffffffffffffffffffffffffff163373ffffffffffffffffffffffffffffffffffffffff1614151561120857600080fd5b600073ffffffffffffffffffffffffffffffffffffffff168373ffffffffffffffffffffffffffffffffffffffff161415151561124457600080fd5b600080600460009054906101000a900473ffffffffffffffffffffffffffffffffffffffff1673ffffffffffffffffffffffffffffffffffffffff1673ffffffffffffffffffffffffffffffffffffffff1681526020019081526020016000205482111515156112b357600080fd5b611304826000808673ffffffffffffffffffffffffffffffffffffffff1673ffffffffffffffffffffffffffffffffffffffff168152602001908152602001600020546124cd90919063ffffffff16565b6000808573ffffffffffffffffffffffffffffffffffffffff1673ffffffffffffffffffffffffffffffffffffffff168152602001908152602001600020819055507f689dc1bc77313e4cd787777c3e975ff2110d0a60c2532e54d3ddf324eb66070d8383604051808373ffffffffffffffffffffffffffffffffffffffff1673ffffffffffffffffffffffffffffffffffffffff1681526020018281526020019250505060405180910390a16001905092915050565b601281565b6000600560009054906101000a900473ffffffffffffffffffffffffffffffffffffffff1673ffffffffffffffffffffffffffffffffffffffff163373ffffffffffffffffffffffffffffffffffffffff1614151561141e57600080fd5b600073ffffffffffffffffffffffffffffffffffffffff168373ffffffffffffffffffffffffffffffffffffffff161415151561145a57600080fd5b6000808473ffffffffffffffffffffffffffffffffffffffff1673ffffffffffffffffffffffffffffffffffffffff1681526020019081526020016000205482111515156114a757600080fd5b6114f8826000808673ffffffffffffffffffffffffffffffffffffffff1673ffffffffffffffffffffffffffffffffffffffff168152602001908152602001600020546124b490919063ffffffff16565b6000808573ffffffffffffffffffffffffffffffffffffffff1673ffffffffffffffffffffffffffffffffffffffff168152602001908152602001600020819055507fe153387693efb5c934c41f1bf7cb6ede6331a67cb182536524ada21717dc1be48383604051808373ffffffffffffffffffffffffffffffffffffffff1673ffffffffffffffffffffffffffffffffffffffff1681526020018281526020019250505060405180910390a16001905092915050565b600080600360009054906101000a900473ffffffffffffffffffffffffffffffffffffffff1673ffffffffffffffffffffffffffffffffffffffff163373ffffffffffffffffffffffffffffffffffffffff1614151561160e57600080fd5b600073ffffffffffffffffffffffffffffffffffffffff168373ffffffffffffffffffffffffffffffffffffffff16141580156116995750600460009054906101000a900473ffffffffffffffffffffffffffffffffffffffff1673ffffffffffffffffffffffffffffffffffffffff168373ffffffffffffffffffffffffffffffffffffffff1614155b15156116a457600080fd5b823b90506000811115156116b757600080fd5b82600560006101000a81548173ffffffffffffffffffffffffffffffffffffffff021916908373ffffffffffffffffffffffffffffffffffffffff1602179055507f198db6e425fb8aafd1823c6ca50be2d51e5764571a5ae0f0f21c6812e45def0b83604051808273ffffffffffffffffffffffffffffffffffffffff1673ffffffffffffffffffffffffffffffffffffffff16815260200191505060405180910390a16001915050919050565b600080600260003373ffffffffffffffffffffffffffffffffffffffff1673ffffffffffffffffffffffffffffffffffffffff16815260200190815260200160002060008573ffffffffffffffffffffffffffffffffffffffff1673ffffffffffffffffffffffffffffffffffffffff16815260200190815260200160002054905080831115611876576000600260003373ffffffffffffffffffffffffffffffffffffffff1673ffffffffffffffffffffffffffffffffffffffff16815260200190815260200160002060008673ffffffffffffffffffffffffffffffffffffffff1673ffffffffffffffffffffffffffffffffffffffff1681526020019081526020016000208190555061190a565b61188983826124b490919063ffffffff16565b600260003373ffffffffffffffffffffffffffffffffffffffff1673ffffffffffffffffffffffffffffffffffffffff16815260200190815260200160002060008673ffffffffffffffffffffffffffffffffffffffff1673ffffffffffffffffffffffffffffffffffffffff168152602001908152602001600020819055505b8373ffffffffffffffffffffffffffffffffffffffff163373ffffffffffffffffffffffffffffffffffffffff167f8c5be1e5ebec7d5bd14f71427d1e84f3dd0314c0f7b2291e5b200ac8c7c3b925600260003373ffffffffffffffffffffffffffffffffffffffff1673ffffffffffffffffffffffffffffffffffffffff16815260200190815260200160002060008873ffffffffffffffffffffffffffffffffffffffff1673ffffffffffffffffffffffffffffffffffffffff168152602001908152602001600020546040518082815260200191505060405180910390a3600191505092915050565b60008060008373ffffffffffffffffffffffffffffffffffffffff1673ffffffffffffffffffffffffffffffffffffffff168152602001908152602001600020549050919050565b6040805190810160405280600481526020017f524f544f0000000000000000000000000000000000000000000000000000000081525081565b6000600560009054906101000a900473ffffffffffffffffffffffffffffffffffffffff1673ffffffffffffffffffffffffffffffffffffffff163373ffffffffffffffffffffffffffffffffffffffff16141515611ad557600080fd5b600073ffffffffffffffffffffffffffffffffffffffff168373ffffffffffffffffffffffffffffffffffffffff1614151515611b1157600080fd5b6000808473ffffffffffffffffffffffffffffffffffffffff1673ffffffffffffffffffffffffffffffffffffffff168152602001908152602001600020548211151515611b5e57600080fd5b611bd182600080600460009054906101000a900473ffffffffffffffffffffffffffffffffffffffff1673ffffffffffffffffffffffffffffffffffffffff1673ffffffffffffffffffffffffffffffffffffffff168152602001908152602001600020546124cd90919063ffffffff16565b600080600460009054906101000a900473ffffffffffffffffffffffffffffffffffffffff1673ffffffffffffffffffffffffffffffffffffffff1673ffffffffffffffffffffffffffffffffffffffff168152602001908152602001600020819055507f89b6096c8def713e4534f4ec76ebe28f7372d5befb9ceef6010c8ec7475646c08383604051808373ffffffffffffffffffffffffffffffffffffffff1673ffffffffffffffffffffffffffffffffffffffff1681526020018281526020019250505060405180910390a16001905092915050565b60008073ffffffffffffffffffffffffffffffffffffffff168373ffffffffffffffffffffffffffffffffffffffff1614151515611ce757600080fd5b6000803373ffffffffffffffffffffffffffffffffffffffff1673ffffffffffffffffffffffffffffffffffffffff168152602001908152602001600020548211151515611d3457600080fd5b611d85826000803373ffffffffffffffffffffffffffffffffffffffff1673ffffffffffffffffffffffffffffffffffffffff168152602001908152602001600020546124b490919063ffffffff16565b6000803373ffffffffffffffffffffffffffffffffffffffff1673ffffffffffffffffffffffffffffffffffffffff16815260200190815260200160002081905550611e18826000808673ffffffffffffffffffffffffffffffffffffffff1673ffffffffffffffffffffffffffffffffffffffff168152602001908152602001600020546124cd90919063ffffffff16565b6000808573ffffffffffffffffffffffffffffffffffffffff1673ffffffffffffffffffffffffffffffffffffffff168152602001908152602001600020819055508273ffffffffffffffffffffffffffffffffffffffff163373ffffffffffffffffffffffffffffffffffffffff167fddf252ad1be2c89b69c2b068fc378daa952ba7f163c4a11628f55a4df523b3ef846040518082815260200191505060405180910390a36001905092915050565b6000600560009054906101000a900473ffffffffffffffffffffffffffffffffffffffff1673ffffffffffffffffffffffffffffffffffffffff163373ffffffffffffffffffffffffffffffffffffffff16141515611f2757600080fd5b600073ffffffffffffffffffffffffffffffffffffffff168373ffffffffffffffffffffffffffffffffffffffff1614151515611f6357600080fd5b600080600460009054906101000a900473ffffffffffffffffffffffffffffffffffffffff1673ffffffffffffffffffffffffffffffffffffffff1673ffffffffffffffffffffffffffffffffffffffff168152602001908152602001600020548211151515611fd257600080fd5b612023826000808673ffffffffffffffffffffffffffffffffffffffff1673ffffffffffffffffffffffffffffffffffffffff168152602001908152602001600020546124cd90919063ffffffff16565b6000808573ffffffffffffffffffffffffffffffffffffffff1673ffffffffffffffffffffffffffffffffffffffff168152602001908152602001600020819055506120d882600080600460009054906101000a900473ffffffffffffffffffffffffffffffffffffffff1673ffffffffffffffffffffffffffffffffffffffff1673ffffffffffffffffffffffffffffffffffffffff168152602001908152602001600020546124b490919063ffffffff16565b600080600460009054906101000a900473ffffffffffffffffffffffffffffffffffffffff1673ffffffffffffffffffffffffffffffffffffffff1673ffffffffffffffffffffffffffffffffffffffff168152602001908152602001600020819055507f7af87d33833ea40c51ff501965e940087a6b808e15eb993bafd4b7d066caee9f600460009054906101000a900473ffffffffffffffffffffffffffffffffffffffff168484604051808473ffffffffffffffffffffffffffffffffffffffff1673ffffffffffffffffffffffffffffffffffffffff1681526020018373ffffffffffffffffffffffffffffffffffffffff1673ffffffffffffffffffffffffffffffffffffffff168152602001828152602001935050505060405180910390a16001905092915050565b6000600560009054906101000a900473ffffffffffffffffffffffffffffffffffffffff16905090565b60006122c282600260003373ffffffffffffffffffffffffffffffffffffffff1673ffffffffffffffffffffffffffffffffffffffff16815260200190815260200160002060008673ffffffffffffffffffffffffffffffffffffffff1673ffffffffffffffffffffffffffffffffffffffff168152602001908152602001600020546124cd90919063ffffffff16565b600260003373ffffffffffffffffffffffffffffffffffffffff1673ffffffffffffffffffffffffffffffffffffffff16815260200190815260200160002060008573ffffffffffffffffffffffffffffffffffffffff1673ffffffffffffffffffffffffffffffffffffffff168152602001908152602001600020819055508273ffffffffffffffffffffffffffffffffffffffff163373ffffffffffffffffffffffffffffffffffffffff167f8c5be1e5ebec7d5bd14f71427d1e84f3dd0314c0f7b2291e5b200ac8c7c3b925600260003373ffffffffffffffffffffffffffffffffffffffff1673ffffffffffffffffffffffffffffffffffffffff16815260200190815260200160002060008773ffffffffffffffffffffffffffffffffffffffff1673ffffffffffffffffffffffffffffffffffffffff168152602001908152602001600020546040518082815260200191505060405180910390a36001905092915050565b6000600260008473ffffffffffffffffffffffffffffffffffffffff1673ffffffffffffffffffffffffffffffffffffffff16815260200190815260200160002060008373ffffffffffffffffffffffffffffffffffffffff1673ffffffffffffffffffffffffffffffffffffffff16815260200190815260200160002054905092915050565b60008282111515156124c257fe5b818303905092915050565b600081830190508281101515156124e057fe5b809050929150505600a165627a7a72305820f87b22a28cf54ee3d393688cb8e7e2a210379e7e0ac66ea6bca84463e4954dfd0029",
  "source": "pragma solidity 0.4.24;\r\n\r\nimport \"./StandardToken.sol\";\r\n\r\ncontract RotoToken is StandardToken {\r\n\r\n    string public constant name = \"Roto\"; // token name\r\n    string public constant symbol = \"ROTO\"; // token symbol\r\n    uint8 public constant decimals = 18; // token decimal\r\n\r\n    uint256 public constant INITIAL_SUPPLY = 21000000 * (10 ** uint256(decimals));\r\n    address owner;\r\n    address roto = this;\r\n    address manager;\r\n\r\n    // keeps track of the ROTO currently staked in a tournament\r\n    // the format is user address -> the tournament they staked in -> how much they staked\r\n    mapping (address => mapping (bytes32 => uint256)) stakes;\r\n\r\n  /**\r\n   * @dev Constructor that gives msg.sender all of existing tokens.\r\n   */\r\n\r\n    modifier onlyOwner {\r\n        require(msg.sender==owner);\r\n        _;\r\n    }\r\n\r\n    modifier onlyManager {\r\n      require(msg.sender==manager);\r\n      _;\r\n    }\r\n\r\n    event ManagerChanged(address _contract);\r\n    event RotoStaked(address _user, uint256 stake);\r\n    event RotoReleased(address _user, uint256 stake);\r\n    event RotoDestroyed(address _user, uint256 stake);\r\n    event RotoRewarded(address _contract, address _user, uint256 reward);\r\n\r\n    constructor() public {\r\n        owner = msg.sender;\r\n        totalSupply_ = INITIAL_SUPPLY;\r\n        balances[roto] = INITIAL_SUPPLY;\r\n        emit Transfer(0x0, roto, INITIAL_SUPPLY);\r\n    }\r\n\r\n    \r\n    /**\r\n     *  @dev A function that can only be called by RotoHive, transfers Roto Tokens out of the contract.\r\n        @param _to address, the address that the ROTO will be transferred to\r\n        @param _value ROTO, amount to transfer\r\n        @return - whether the Roto was transferred succesfully\r\n     */\r\n    function transferFromContract(address _to, uint256 _value) public onlyOwner returns(bool) {\r\n        require(_to!=address(0));\r\n        require(_value<=balances[roto]);\r\n\r\n        balances[roto] = balances[roto].sub(_value);\r\n        balances[_to] = balances[_to].add(_value);\r\n\r\n        emit Transfer(roto, _to, _value);\r\n        return true;\r\n    }\r\n\r\n    /**\r\n        @dev updates the helper contract(which will manage the tournament) with the new version\r\n        @param _contract address, the address of the manager contract\r\n        @return - whether the contract was successfully set\r\n    */\r\n    function setManagerContract(address _contract) external onlyOwner returns(bool) {\r\n      //checks that the address sent isn't the 0 address, the owner or the token contract\r\n      require(_contract!=address(0)&&_contract!=roto);\r\n\r\n      // requires that the address sent be a contract\r\n      uint size;\r\n      assembly { size := extcodesize(_contract) }\r\n      require(size > 0);\r\n\r\n      manager = _contract;\r\n\r\n      emit ManagerChanged(_contract);\r\n      return true;\r\n    }\r\n\r\n    /**\r\n        @dev - called by the manager contract to add back to the user their roto in the event that their submission was successful\r\n        @param  _user address, the address of the user who submitted the rankings\r\n        @param _value staked, the amount that the user staked alongside their submissions\r\n        @return boolean value, whether the roto were successfully released\r\n    */\r\n    function releaseRoto(address _user, uint256 _value) external onlyManager returns(bool) {\r\n        require(_user!=address(0));\r\n        require(_value<=balances[roto]);\r\n\r\n        balances[_user] = balances[_user].add(_value);\r\n        emit RotoReleased(_user, _value);\r\n        return true;\r\n    }\r\n\r\n    /**\r\n        @dev - function called by manager contract to process the accounting aspects of the destroyRoto function\r\n        @param  _user address, the address of the user who's stake will be destroyed\r\n        @param _value ROTO, the amount that they staked\r\n        @return - a boolean value that reflects whether the roto were successfully destroyed\r\n    */\r\n    function destroyRoto(address _user, uint256 _value) external onlyManager returns(bool) {\r\n        require(_user!=address(0));\r\n        require(_value<=balances[_user]);\r\n\r\n        balances[roto] = balances[roto].add(_value);\r\n        emit RotoDestroyed(_user, _value);\r\n        return true;\r\n    }\r\n\r\n    /**\r\n        @dev - called by the manager contract, runs the accounting portions of the staking process\r\n        @param  _user address, the address of the user staking ROTO\r\n        @param _value ROTO, the amount the user is staking\r\n        @return - whether the staking process went successfully\r\n    */\r\n    function stakeRoto(address _user, uint256 _value) external onlyManager returns(bool) {\r\n        require(_user!=address(0));\r\n        require(_value<=balances[_user]);\r\n\r\n        balances[_user] = balances[_user].sub(_value);\r\n        emit RotoStaked(_user, _value);\r\n        return true;\r\n    }\r\n    \r\n    /**\r\n      @dev - called by the manager contract, used to reward non-staked submissions by users\r\n      @param _user address, the address that will receive the rewarded ROTO\r\n      @param _value ROTO, the amount of ROTO that they'll be rewarded\r\n     */\r\n    function rewardRoto(address _user, uint256 _value) external onlyManager returns(bool successful) {\r\n      require(_user!=address(0));\r\n      require(_value<=balances[roto]);\r\n\r\n      balances[_user] = balances[_user].add(_value);\r\n      balances[roto] = balances[roto].sub(_value);\r\n\r\n      emit RotoRewarded(roto, _user, _value);\r\n      return true;\r\n    }\r\n    /**\r\n        @dev - to be called by the manager contract to check if a given user has enough roto to\r\n            stake the given amount\r\n        @param  _user address, the address of the user who's attempting to stake ROTO\r\n        @param _value ROTO, the amount they are attempting to stake\r\n        @return - whether the user has enough balance to stake the received amount\r\n    */\r\n    function canStake(address _user, uint256 _value) public view onlyManager returns(bool) {\r\n      require(_user!=address(0));\r\n      require(_value<=balances[_user]);\r\n\r\n      return true;\r\n    }\r\n\r\n    /**\r\n      @dev Getter function for manager\r\n     */\r\n    function getManager() public view returns (address _manager) {\r\n      return manager;\r\n    }\r\n}",
  "sourcePath": "D:\\contracts\\contracts\\RotoToken.sol",
  "compiler": {
    "name": "solc",
    "version": "0.4.24+commit.e67f0147.Emscripten.clang"
  },
  "schemaVersion": "2.0.0",
  "updatedAt": "2018-08-04T23:09:57.534Z"
}