{
  "contractName": "RotoBasic",
  "abi": [
    {
      "constant": true,
      "inputs": [
        {
          "name": "",
          "type": "bytes32"
        }
      ],
      "name": "tournaments",
      "outputs": [
        {
          "name": "open",
          "type": "bool"
        },
        {
          "name": "etherPrize",
          "type": "uint256"
        },
        {
          "name": "rotoPrize",
          "type": "uint256"
        },
        {
          "name": "creationTime",
          "type": "uint256"
        }
      ],
      "payable": false,
      "stateMutability": "view",
      "type": "function"
    },
    {
      "payable": true,
      "stateMutability": "payable",
      "type": "fallback"
    },
    {
      "anonymous": false,
      "inputs": [
        {
          "indexed": true,
          "name": "staker",
          "type": "address"
        },
        {
          "indexed": false,
          "name": "totalAmountStaked",
          "type": "uint256"
        },
        {
          "indexed": true,
          "name": "tournamentID",
          "type": "bytes32"
        }
      ],
      "name": "StakeProcessed",
      "type": "event"
    },
    {
      "anonymous": false,
      "inputs": [
        {
          "indexed": true,
          "name": "tournamentID",
          "type": "bytes32"
        },
        {
          "indexed": true,
          "name": "stakerAddress",
          "type": "address"
        },
        {
          "indexed": false,
          "name": "rotoLost",
          "type": "uint256"
        }
      ],
      "name": "StakeDestroyed",
      "type": "event"
    },
    {
      "anonymous": false,
      "inputs": [
        {
          "indexed": true,
          "name": "tournamentID",
          "type": "bytes32"
        },
        {
          "indexed": true,
          "name": "stakerAddress",
          "type": "address"
        },
        {
          "indexed": false,
          "name": "etherReward",
          "type": "uint256"
        },
        {
          "indexed": false,
          "name": "rotoStaked",
          "type": "uint256"
        }
      ],
      "name": "StakeReleased",
      "type": "event"
    },
    {
      "anonymous": false,
      "inputs": [
        {
          "indexed": true,
          "name": "tournamentID",
          "type": "bytes32"
        },
        {
          "indexed": true,
          "name": "stakerAddress",
          "type": "address"
        },
        {
          "indexed": false,
          "name": "rotoReward",
          "type": "uint256"
        }
      ],
      "name": "SubmissionRewarded",
      "type": "event"
    },
    {
      "anonymous": false,
      "inputs": [
        {
          "indexed": false,
          "name": "_contract",
          "type": "address"
        }
      ],
      "name": "TokenChanged",
      "type": "event"
    },
    {
      "anonymous": false,
      "inputs": [
        {
          "indexed": true,
          "name": "tournamentID",
          "type": "bytes32"
        },
        {
          "indexed": false,
          "name": "etherPrize",
          "type": "uint256"
        },
        {
          "indexed": false,
          "name": "rotoPrize",
          "type": "uint256"
        }
      ],
      "name": "TournamentCreated",
      "type": "event"
    },
    {
      "anonymous": false,
      "inputs": [
        {
          "indexed": true,
          "name": "tournamentID",
          "type": "bytes32"
        }
      ],
      "name": "TournamentClosed",
      "type": "event"
    },
    {
      "constant": false,
      "inputs": [
        {
          "name": "_contract",
          "type": "address"
        }
      ],
      "name": "setTokenContract",
      "outputs": [
        {
          "name": "",
          "type": "bool"
        }
      ],
      "payable": false,
      "stateMutability": "nonpayable",
      "type": "function"
    },
    {
      "constant": false,
      "inputs": [
        {
          "name": "_emergency",
          "type": "bool"
        }
      ],
      "name": "setEmergency",
      "outputs": [
        {
          "name": "",
          "type": "bool"
        }
      ],
      "payable": false,
      "stateMutability": "nonpayable",
      "type": "function"
    }
  ],
  "bytecode": "0x608060405230600460006101000a81548173ffffffffffffffffffffffffffffffffffffffff021916908373ffffffffffffffffffffffffffffffffffffffff16021790555034801561005157600080fd5b50610447806100616000396000f300608060405260043610610057576000357c0100000000000000000000000000000000000000000000000000000000900463ffffffff1680630501d55614610059578063139cfab1146100a0578063bbcd5bbe146100fe575b005b34801561006557600080fd5b50610086600480360381019080803515159060200190929190505050610159565b604051808215151515815260200191505060405180910390f35b3480156100ac57600080fd5b506100cf60048036038101908080356000191690602001909291905050506101da565b604051808515151515815260200184815260200183815260200182815260200194505050505060405180910390f35b34801561010a57600080fd5b5061013f600480360381019080803573ffffffffffffffffffffffffffffffffffffffff169060200190929190505050610217565b604051808215151515815260200191505060405180910390f35b6000600360009054906101000a900473ffffffffffffffffffffffffffffffffffffffff1673ffffffffffffffffffffffffffffffffffffffff163373ffffffffffffffffffffffffffffffffffffffff161415156101b757600080fd5b81600460146101000a81548160ff02191690831515021790555060019050919050565b60006020528060005260406000206000915090508060000160009054906101000a900460ff16908060010154908060020154908060030154905084565b6000600360009054906101000a900473ffffffffffffffffffffffffffffffffffffffff1673ffffffffffffffffffffffffffffffffffffffff163373ffffffffffffffffffffffffffffffffffffffff1614151561027557600080fd5b600073ffffffffffffffffffffffffffffffffffffffff168273ffffffffffffffffffffffffffffffffffffffff16141580156103005750600460009054906101000a900473ffffffffffffffffffffffffffffffffffffffff1673ffffffffffffffffffffffffffffffffffffffff168273ffffffffffffffffffffffffffffffffffffffff1614155b151561030b57600080fd5b81600260006101000a81548173ffffffffffffffffffffffffffffffffffffffff021916908373ffffffffffffffffffffffffffffffffffffffff160217905550600260009054906101000a900473ffffffffffffffffffffffffffffffffffffffff16600160006101000a81548173ffffffffffffffffffffffffffffffffffffffff021916908373ffffffffffffffffffffffffffffffffffffffff1602179055507f5d108ca248943e98e1886bbc2c38beda701271994a14354258a11692b81b73cf82604051808273ffffffffffffffffffffffffffffffffffffffff1673ffffffffffffffffffffffffffffffffffffffff16815260200191505060405180910390a1600190509190505600a165627a7a7230582099eab6cc060eb76a2ac678fc0e93315cb309fc2b43e7eee7ce1b2521e670c3190029",
  "source": "pragma solidity ^0.4.22;\r\n\r\nimport './RotoToken.sol';\r\n\r\ncontract RotoBasic {\r\n\r\n    mapping (bytes32 => Tournament) public tournaments;  // tournamentID\r\n    \r\n    //Instance and Address of the RotoToken contract\r\n    RotoToken token;\r\n    address roto;\r\n\r\n    //Address of the contract owner the manager contract(this contract)\r\n    address owner;\r\n    address manager = this;\r\n\r\n    //boolean variable that determines whether there's an emergency state\r\n    bool emergency;\r\n\r\n    struct Tournament {\r\n        bool open;\r\n        uint256 etherPrize;\r\n        uint256 rotoPrize;\r\n        uint256 creationTime;\r\n        mapping (address => mapping (bytes32 => Stake)) stakes;  // address of staker, to tournament ID points to a specific stake\r\n    }\r\n\r\n    struct Stake {\r\n        uint256 amount; // Once the stake is resolved, this becomes 0\r\n        bool successful;\r\n        bool resolved;\r\n    }\r\n\r\n    modifier onlyOwner {\r\n      require(msg.sender==owner);\r\n      _;\r\n    }\r\n\r\n    modifier stopInEmergency {\r\n      require(emergency==false);\r\n      _;\r\n    }\r\n\r\n    //Tournament Creation and Processing Events\r\n    event StakeProcessed(address indexed staker, uint256 totalAmountStaked, bytes32 indexed tournamentID);\r\n    event StakeDestroyed(bytes32 indexed tournamentID, address indexed stakerAddress, uint256 rotoLost);\r\n    event StakeReleased(bytes32 indexed tournamentID, address indexed stakerAddress, uint256 etherReward, uint256 rotoStaked);\r\n    event SubmissionRewarded(bytes32 indexed tournamentID, address indexed stakerAddress, uint256 rotoReward);\r\n    \r\n    event TokenChanged(address _contract);\r\n    event TournamentCreated(bytes32 indexed tournamentID, uint256 etherPrize, uint256 rotoPrize);\r\n    event TournamentClosed(bytes32 indexed tournamentID);\r\n\r\n    function() public payable {}\r\n\r\n    /**\r\n       @dev - sets the token contract to used for the token accounting\r\n       @param _contract address, the address of the token contract\r\n       @return - true if the token contract was set successfully\r\n    */\r\n    function setTokenContract(address _contract) public onlyOwner returns(bool) {\r\n      require(_contract!=address(0)&&_contract!=manager);\r\n      roto = _contract;\r\n      token = RotoToken(roto);\r\n\r\n      emit TokenChanged(_contract);\r\n      return true;\r\n    }\r\n\r\n    /**\r\n        @dev - sets the state of the emegency variable to true, preventing any of the tournament processes to run\r\n        @param _emergency boolean variable to set emergency to\r\n        @return - true if the variable was changed successfully\r\n    */\r\n    function setEmergency(bool _emergency) public onlyOwner returns(bool) {\r\n      emergency = _emergency;\r\n      return true;\r\n    }\r\n\r\n}",
  "sourcePath": "D:\\contracts\\contracts\\RotoBasic.sol",
  "compiler": {
    "name": "solc",
    "version": "0.4.24+commit.e67f0147.Emscripten.clang"
  },
  "schemaVersion": "2.0.0",
  "updatedAt": "2018-07-17T22:16:56.190Z"
}